:020000040000FA
:04000000FEEFFFF020
:020000040001F9
:10FF100012001200120001EE01F1110EEE6AE80665
:10FF2000FDE10001B0EFFFF0800EBE6E000E040197
:10FF3000006F000EC66EC768000E086F1200000E3C
:10FF40000D6E000E0E6E000E0F6E000E106E000E87
:10FF5000096E000E0A6E000E0B6E000E0C6E120083
:10FF6000088E88ECFFF09FECFFF094ECFFF08AEC39
:10FF7000FFF0C1ECFFF089ECFFF0B9EFFFF0FEEF0E
:10FF8000FFF061003CF312F5200E12161250136EB2
:10FF9000146A156A166A015013180FE102501418FA
:10FFA0000CE10350151809E104501618D8B4DBEF22
:10FFB000FFF0DDEFFFF0FDEFFFF0200E0118021063
:10FFC00003100410D8B4E7EFFFF0E9EFFFF0F5EF0E
:10FFD000FFF0C00EBE18D8A4F0EFFFF0F2EFFFF074
:10FFE000F4EFFFF0800EBE6EBE2A13C501F514C5F6
:10FFF00002F515C503F516C504F512008BEFFFF0E9
:020000040020DA
:10000000FF0FFF0FFF0FFF0FFF0FFF0FFF0FFF0F80
:10001000FF0FFF0FFF0FFF0FFF0FFF0FFF0FFF0F70
:020000040030CA
:0A0000008CFEFFFC9FFFFFFFFFFFD7
:00000001FF
