:020000040000FA
:0400000081EF00F09C
:100008004C01340134013401400034014000340112
:100018003401340134013401340134013401340130
:1000280034014000400040003401340134013401FF
:100038003401340134014501E5003401340134014F
:1000480034013401340134014000400034013401EA
:1000580034013401340140003401340134013401E5
:1000680034013401340134013401340134013401E0
:1000780034013401340134014000340134013401C5
:1000880034013401340134013401340134013401C0
:10009800340134013401340140003401400040008F
:1000A80034013401340134013401340134013401A0
:1000B8003401340134013401340134013401340190
:1000C8003401340134013401340134013401340180
:1000D8003401340134013401340134013401340170
:1000E8004000340134013401400040004000400029
:1000F8003401340134013401FF0059EF01F08083E9
:1001080086898C8F9295989B9EA2A5A7AAADB0B31D
:10011800B6B9BCBEC1C4C6C9CBCED0D3D5D7DADC3C
:10012800DEE0E2E4E6E8EAEBEDEEF0F1F3F4F5F612
:10013800F8F9FAFAFBFCFDFDFEFEFEFFFFFFFFFFEC
:10014800FFFFFEFEFEFDFDFCFBFAFAF9F8F6F5F4FA
:10015800F3F1F0EEEDEBEAE8E6E4E2E0DEDCDAD734
:10016800D5D3D0CECBC9C6C4C1BEBCB9B6B3B0AD69
:10017800AAA7A5A29E9B9895928F8C898683807C3E
:10018800797673706D6A6764615D5A5855524F4C41
:10019800494643413E3B393634312F2C2A28252302
:1001A800211F1D1B1917151412110F0E0C0B0A090C
:1001B8000706050504030202010101000000000012
:1001C80000000101010202030405050607090A0BE4
:1001D8000C0E0F1112141517191B1D1F212325288A
:1001E8002A2C2F313436393B3E414346494C4F5235
:1001F80055585A5D6164676A6D707376797C21EE33
:1002080001F111EE60F1370EDBC4E3F4E806FCE21D
:1002180021EE00F211EE98F1370EDBC4E3F4E806A4
:10022800FCE20501D251020D980EF324D96E050E99
:10023800F420DA6ED051DE1807E1D151DE18D8A4C7
:1002480028EF01F02AEF01F056EF01F0000ED16F10
:10025800000ED06F1B0ED219D8A435EF01F037EF7E
:1002680001F038EF01F0D269D2C54FF5506A4FBEA0
:100278005006D8904F365036020E4F26000E5022A8
:10028800600E4F24D96E050E5020DA6E610078F3A7
:100298004AF5610074F34BF5010E4C6EA0EC01F0C9
:1002A8000501D22BD04BD12B1200060EF66E010E93
:1002B800F76E000EF86E01EE00F310EE00F1090083
:1002C800F5C4EEF4E550E150FAE1E250F8E1060E2B
:1002D800F66E040EF76E000EF86E01EE00F210EEE8
:1002E80038F00900F5C4EEF4E550E150FAE1CE0E1D
:1002F800F66E030EF76E000EF86E01EE01F110EEC9
:1003080038F00900F5C4EEF4E550E150FAE10501D2
:10031800D36BD26BD16BD06B01EE39F1100EEE6A54
:10032800E806FDE10401080E5D6F000E5E6F000E29
:100338005F6F000139EF02F003011E91800E4B5CE4
:10034800D8A0A9EF01F0ABEF01F0AEEF01F07F0EFE
:100358004B6E4A684A1C4D6E4B1C4E6E4E50486E92
:100368004DC547F5610020F51DF361001CF51CF330
:1003780046904C50D8B4C3EF01F0C5EF01F0C6EF7A
:1003880001F04680B198A1881E811200610020F515
:100398001DF361001CF51CF3040E4526000E4524D0
:1003A800D96EDA6A070EDA22DF5000017D6FB19844
:1003B80046B0E1EF01F0E3EF01F0E6EF01F0A198BC
:1003C80003011E9111003C0000003C0000002800C1
:1003D800000028000000240000002400000028007D
:1003E80000002D0000002D0000002F0000002F004D
:1003F800000035000000350000003C00000000024D
:100408003200000232000002320000023200000214
:100418003200000232000004320000023200000202
:1004280032000002320000023200000232000002F4
:1004380032000004D007000E416E000E426E000E1E
:10044800436E000E446E000E3D6E000E3E6E000EB2
:100458003F6E000E406E7D0E0301236F010E266F66
:10046800B196F00E246FA18612000501D38F9AEC85
:1004780002F075EC02F094EC02F01FEC02F051EC83
:1004880002F00501D39F03EC01F0BE9E80EC02F060
:10049800BE8E47EF02F081EF00F0C00EBE16900E40
:1004A80003011A6F540E1B6F000E1F6F010E216F90
:1004B800310E1E6F000E4B6E100E4A6E010E4C6E02
:0604C800A0EC01F012009F
:1004D000610060F349F5010E3926000E3A223B22F5
:1004E0003C22610024F5D8F41100000E0401006FD5
:1004F000000EC66EA00E00017F6F000E7D6F120011
:100500000501D38DD3BD87EF02F089EF02F082EFB2
:1005100002F01200B1960501D39D010E4126000E96
:100520004222432244221100D68AD68ED68C120053
:06053000AE901100120064
:020000040020DA
:10000000FF0FFF0FFF0FFF0FFF0FFF0FFF0FFF0F80
:10001000FF0FFF0FFF0FFF0FFF0FFF0FFF0FFF0F70
:020000040030CA
:0A0000008CFEFFFC9FFFFFFFFFFFD7
:00000001FF
