:020000040000FA
:04000000FEEFFFF020
:020000040001F9
:10FF6E0012001200120001EE01F10D0EEE6AE8060B
:10FF7E00FDE10001EDEFFFF0000ECE6E000EC66E3D
:10FF8E00000E0401006F800EBE6E1200CE28CE6EE3
:10FF9E00290E0F6E960E0E6E7F0EE82EFED70E2ECB
:10FFAE00FCD70F2EFAD700F01200000E096E000ECD
:10FFBE000A6E000E0B6E000E0C6E000E056E000E1D
:10FFCE00066E000E076E000E086E1200048EB7EC61
:10FFDE00FFF0DCECFFF0C3ECFFF0B9ECFFF0CDEC82
:10FFEE00FFF0B8ECFFF0F6EFFFF0FEEFFFF0BAEF28
:02FFFE00FFF012
:020000040020DA
:10000000FF0FFF0FFF0FFF0FFF0FFF0FFF0FFF0F80
:10001000FF0FFF0FFF0FFF0FFF0FFF0FFF0FFF0F70
:020000040030CA
:0A0000008CFEFFFC9FFFFFFFFFFFD7
:00000001FF
