:020000040000FA
:04000000FEEFFFF020
:020000040001F9
:10FF9C001200120012001200120001EE01F10D0EFF
:10FFAC00EE6AE806FDE10001EDEFFFF0000E096ED0
:10FFBC00000E0A6E000E0B6E000E0C6E000E056E1F
:10FFCC00000E066E000E076E000E086E1200048EF8
:10FFDC00CEECFFF0DCECFFF0CFECFFF0D1ECFFF05F
:10FFEC00D2ECFFF0D0ECFFF0F6EFFFF0FEEFFFF0FD
:04FFFC00D3EFFFF050
:020000040020DA
:10000000FF0FFF0FFF0FFF0FFF0FFF0FFF0FFF0F80
:10001000FF0FFF0FFF0FFF0FFF0FFF0FFF0FFF0F70
:020000040030CA
:0A0000008CFEFFFC9FFFFFFFFFFFD7
:00000001FF
