:020000040000FA
:04000000FEEFFFF020
:020000040001F9
:10FF0E0012001200800EBE6E900E03011A6F540E78
:10FF1E001B6F120001EE01F10D0EEE6AE806FDE117
:10FF2E000001DEEFFFF0000E0401006F000EC66E42
:10FF3E00A00E00017F6F800E7D6F120000017D29E3
:10FF4E00D8A4ACEFFFF0AEEFFFF0B2EFFFF0010E72
:10FF5E007D6FB3EFFFF07D2B1200000E096E000EC9
:10FF6E000A6E000E0B6E000E0C6E000E056E000E6D
:10FF7E00066E000E076E000E086E120003011A5177
:10FF8E007F0B1A6F0E1C126E0F1C136E12C510F51E
:10FF9E001350116E610040F418F3610044F419F32C
:10FFAE00B1507F0BB16E1A5180091A6F1200048E78
:10FFBE0087ECFFF0B4ECFFF09AECFFF089ECFFF069
:10FFCE00A5ECFFF0BE9E88ECFFF0000E0F6E040E47
:10FFDE000E6EC5ECFFF0B1AEF7EFFFF0F9EFFFF0EC
:10FFEE00F2EFFFF0BE8EE7EFFFF0FEEFFFF091EFC6
:02FFFE00FFF012
:020000040020DA
:10000000FF0FFF0FFF0FFF0FFF0FFF0FFF0FFF0F80
:10001000FF0FFF0FFF0FFF0FFF0FFF0FFF0FFF0F70
:020000040030CA
:0A0000008CFEFFFC9FFFFFFFFFFFD7
:00000001FF
