:020000040000FA
:04000000FEEFFFF020
:020000040001F9
:10FF000012001200120001EE01F10D0EEE6AE80679
:10FF1000FDE10001ABEFFFF0800EBE6E000E0401AC
:10FF2000006F000EC66E000ECF6E010EC76E010E82
:10FF3000086F1200000E096E000E0A6E000E0B6EA6
:10FF4000000E0C6E000E056E000E066E000E076EA3
:10FF5000000E086E1200048E80ECFFF09AECFFF0A9
:10FF60008CECFFF082ECFFF0BCECFFF081ECFFF0DA
:10FF7000B4EFFFF0FEEFFFF0000E0E6E000E0F6EFE
:10FF8000000E106E000E116ECF50D8A4CAEFFFF015
:10FF9000CCEFFFF0E7EFFFF0010E0E6E000E0F6EDC
:10FFA000000E106E000E116EE7EFFFF0CF50D8B4C8
:10FFB000DCEFFFF0DEEFFFF0E7EFFFF0BE2A000E10
:10FFC0000E6E000E0F6E000E106E000E116E0E50B3
:10FFD0000F1010101110D8A4F0EFFFF0F2EFFFF0A7
:10FFE000D6EFFFF00C0EBE18D8A4F9EFFFF0FBEF30
:10FFF000FFF0FDEFFFF0800EBE6E120083EFFFF00A
:020000040020DA
:10000000FF0FFF0FFF0FFF0FFF0FFF0FFF0FFF0F80
:10001000FF0FFF0FFF0FFF0FFF0FFF0FFF0FFF0F70
:020000040030CA
:0A0000008CFEFFFC9FFFFFFFFFFFD7
:00000001FF
