:020000040000FA
:04000000FEEFFFF020
:020000040001F9
:10FEA60012001200810EBE6E900E03011A6F540EE0
:10FEB6001B6F120001EE01F1100EEE6AE806FDE17D
:10FEC600000182EFFFF0800EBE6E000E0401006F8F
:10FED600000EC66EC768000E086F1200000E096E8F
:10FEE600000E0A6E000E0B6E000E0C6E000E056EF6
:10FEF600000E066E000E076E000E086E1200048ECF
:10FF060053ECFFF071ECFFF066ECFFF055ECFFF000
:10FF1600B9ECFFF054ECFFF0010E126EF40E116E08
:10FF260099ECFFF08BEFFFF0FEEFFFF003011A51A3
:10FF36007F0B1A6F111C156E121C166E15C513F564
:10FF46001650146E61004CF418F3610050F419F366
:10FF5600B1507F0BB16E1A5180091A6FB1AEB6EF70
:10FF6600FFF0B8EFFFF0B1EFFFF01200F40E0D183E
:10FF760006E10E04D8A4C2EFFFF0C4EFFFF0FBEFDA
:10FF8600FFF0000E0E6E000E0D6EBE507F0B116E52
:10FF96000F50D8A4D1EFFFF0D3EFFFF0D7EFFFF06B
:10FFA6001144E846FC0B116E0F04D8A4DDEFFFF0F8
:10FFB600DFEFFFF0E3EFFFF01140E8423F0B116E79
:10FFC60011508009BE6E100E1118D8A4EDEFFFF087
:10FFD600EFEFFFF0F1EFFFF0010E0F6E1104D8A462
:10FFE600F7EFFFF0F9EFFFF0FBEFFFF0000E0F6EFB
:0AFFF6000D4A0E2A12005DEFFFF025
:020000040020DA
:10000000FF0FFF0FFF0FFF0FFF0FFF0FFF0FFF0F80
:10001000FF0FFF0FFF0FFF0FFF0FFF0FFF0FFF0F70
:020000040030CA
:0A0000008CFEFFFC9FFFFFFFFFFFD7
:00000001FF
