:020000040000FA
:04000000FEEFFFF020
:020000040001F9
:10FF220012001200800EBE6E000E0401006F000E61
:10FF3200C66E1200800EBE6E900E03011A6F540E32
:10FF42001B6F1200BE2ABE507F0B0E6E0E50800930
:10FF5200BE6E120001EE01F10D0EEE6AE806FDE141
:10FF62000001C5EFFFF0000E096E000E0A6E000ED2
:10FF72000B6E000E0C6E000E056E000E066E000E6D
:10FF8200076E000E086E1200048E91ECFFF0B4ECC6
:10FF9200FFF093ECFFF09BECFFF0A3ECFFF0BE9EB2
:10FFA20092ECFFF0000E0F6E010E0E6EDEECFFF013
:10FFB200BE8ECEEFFFF0FEEFFFF003011A517F0B72
:10FFC2001A6F0E1C126E0F1C136E12C510F5135011
:10FFD200116E610040F418F3610044F419F3B1505A
:10FFE2007F0BB16E1A5180091A6FB1AEFBEFFFF0B1
:0EFFF200FDEFFFF0F6EFFFF01200ABEFFFF0B7
:020000040020DA
:10000000FF0FFF0FFF0FFF0FFF0FFF0FFF0FFF0F80
:10001000FF0FFF0FFF0FFF0FFF0FFF0FFF0FFF0F70
:020000040030CA
:0A0000008CFEFFFC9FFFFFFFFFFFD7
:00000001FF
