:020000040000FA
:04000000FEEFFFF020
:020000040001F9
:10FF3600120012001200800EBE6E000E0401006F49
:10FF4600000EC66E120001EE01F10D0EEE6AE80615
:10FF5600FDE10001C0EFFFF0000E096E000E0A6E13
:10FF6600000E0B6E000E0C6E000E056E000E066E79
:10FF7600000E076E000E086E1200048E9BECFFF05A
:10FF8600AFECFFF09EECFFF09DECFFF0D1ECFFF044
:10FF96009CECFFF0C9EFFFF0FEEFFFF0800E106E55
:10FFA600000E116E000E126E000E136EF0EFFFF0D3
:10FFB600610040F4BEF40C0E0F6E2A0E0E6E1A0E81
:10FFC600E82EFED70E2EFCD70F2EFAD700D0010E44
:10FFD6001026000E11221222132213501210111095
:10FFE60009E1BF0E105CD8A0FBEFFFF0FDEFFFF0BC
:0AFFF600DBEFFFF01200A6EFFFF0B2
:020000040020DA
:10000000FF0FFF0FFF0FFF0FFF0FFF0FFF0FFF0F80
:10001000FF0FFF0FFF0FFF0FFF0FFF0FFF0FFF0F70
:020000040030CA
:0A0000008CFEFFFC9FFFFFFFFFFFD7
:00000001FF
