:020000040000FA
:04000000FEEFFFF020
:020000040001F9
:10FE9A00120012002010080402010000800EBE6E3B
:10FEAA00900E03011A6F540E1B6F1200000EBE6EE5
:10FEBA00000E0401006F000EC66E000ECE6E120018
:10FECA00000E096E000E0A6E000E0B6E000E0C6E0E
:10FEDA00000E056E000E066E000E076E000E086E0E
:10FEEA00120003011A517F0B1A6F191C1D6E1A1C7E
:10FEFA001E6E1DC51BF51E501C6E61006CF418F3B6
:10FF0A00610070F419F3B1507F0BB16E1A51800978
:10FF1A001A6F12009E0EF66EFE0EF76E010EF86E46
:10FF2A0001EE11F110EE08F00900F5C4EEF4E55007
:10FF3A00E150FAE101EE01F1100EEE6AE806FDE188
:10FF4A000001A8EFFFF0048E4DECFFF065ECFFF026
:10FF5A005BECFFF053ECFFF0C8ECFFF0BE9E4EECFA
:10FF6A00FFF0030E1A6EE80E196E76ECFFF0B1AED2
:10FF7A00C1EFFFF0C3EFFFF0BCEFFFF0BE8EB1EFB1
:10FF8A00FFF0FEEFFFF021EE11F111EE19F1070E6D
:10FF9A00DBC4E3F4E806FCE2F40E0D5C010E0E5835
:10FFAA00D8A0DAEFFFF0DCEFFFF0F7EFFFF0060E74
:10FFBA000F18D8A4E3EFFFF0E5EFFFF0E7EFFFF04B
:10FFCA00000E0F6E190E0F24D96EDA6A050EDA22A8
:10FFDA00DF50BE6E0F280F6E000E0E6E000E0D6EF5
:10FFEA00FDEFFFF0010E0D240D6E000E0E200E6EB9
:06FFFA0012008FEFFFF082
:020000040020DA
:10000000FF0FFF0FFF0FFF0FFF0FFF0FFF0FFF0F80
:10001000FF0FFF0FFF0FFF0FFF0FFF0FFF0FFF0F70
:020000040030CA
:0A0000008CFEFFFC9FFFFFFFFFFFD7
:00000001FF
